{
  "_format": "hh-sol-artifact-1",
  "contractName": "SoccerGame",
  "sourceName": "contracts/generatedContract.sol",
  "abi": [
    {
      "anonymous": false,
      "inputs": [
        {
          "indexed": false,
          "internalType": "uint256",
          "name": "gameId",
          "type": "uint256"
        },
        {
          "indexed": false,
          "internalType": "string",
          "name": "winner",
          "type": "string"
        }
      ],
      "name": "GameResult",
      "type": "event"
    },
    {
      "anonymous": false,
      "inputs": [
        {
          "indexed": false,
          "internalType": "uint256",
          "name": "gameId",
          "type": "uint256"
        },
        {
          "indexed": false,
          "internalType": "string",
          "name": "teamA",
          "type": "string"
        },
        {
          "indexed": false,
          "internalType": "string",
          "name": "teamB",
          "type": "string"
        }
      ],
      "name": "GameStarted",
      "type": "event"
    },
    {
      "anonymous": false,
      "inputs": [
        {
          "indexed": false,
          "internalType": "uint256",
          "name": "gameId",
          "type": "uint256"
        },
        {
          "indexed": false,
          "internalType": "uint8",
          "name": "scoreA",
          "type": "uint8"
        },
        {
          "indexed": false,
          "internalType": "uint8",
          "name": "scoreB",
          "type": "uint8"
        },
        {
          "indexed": false,
          "internalType": "string",
          "name": "winner",
          "type": "string"
        }
      ],
      "name": "ScoreUpdated",
      "type": "event"
    },
    {
      "anonymous": false,
      "inputs": [
        {
          "indexed": false,
          "internalType": "string",
          "name": "name",
          "type": "string"
        },
        {
          "indexed": false,
          "internalType": "address",
          "name": "owner",
          "type": "address"
        }
      ],
      "name": "TeamRegistered",
      "type": "event"
    },
    {
      "inputs": [],
      "name": "gameCounter",
      "outputs": [
        {
          "internalType": "uint256",
          "name": "",
          "type": "uint256"
        }
      ],
      "stateMutability": "view",
      "type": "function"
    },
    {
      "inputs": [
        {
          "internalType": "uint256",
          "name": "",
          "type": "uint256"
        }
      ],
      "name": "games",
      "outputs": [
        {
          "internalType": "uint256",
          "name": "id",
          "type": "uint256"
        },
        {
          "internalType": "uint256",
          "name": "time",
          "type": "uint256"
        },
        {
          "internalType": "string",
          "name": "teamA",
          "type": "string"
        },
        {
          "internalType": "string",
          "name": "teamB",
          "type": "string"
        },
        {
          "internalType": "uint8",
          "name": "scoreA",
          "type": "uint8"
        },
        {
          "internalType": "uint8",
          "name": "scoreB",
          "type": "uint8"
        },
        {
          "internalType": "string",
          "name": "winner",
          "type": "string"
        }
      ],
      "stateMutability": "view",
      "type": "function"
    },
    {
      "inputs": [
        {
          "internalType": "string",
          "name": "_name",
          "type": "string"
        },
        {
          "internalType": "uint8",
          "name": "_playerCount",
          "type": "uint8"
        }
      ],
      "name": "registerTeam",
      "outputs": [],
      "stateMutability": "nonpayable",
      "type": "function"
    },
    {
      "inputs": [
        {
          "internalType": "string",
          "name": "_teamA",
          "type": "string"
        },
        {
          "internalType": "string",
          "name": "_teamB",
          "type": "string"
        }
      ],
      "name": "startGame",
      "outputs": [],
      "stateMutability": "nonpayable",
      "type": "function"
    },
    {
      "inputs": [
        {
          "internalType": "string",
          "name": "",
          "type": "string"
        }
      ],
      "name": "teams",
      "outputs": [
        {
          "internalType": "string",
          "name": "name",
          "type": "string"
        },
        {
          "internalType": "address",
          "name": "owner",
          "type": "address"
        },
        {
          "internalType": "uint8",
          "name": "playerCount",
          "type": "uint8"
        }
      ],
      "stateMutability": "view",
      "type": "function"
    },
    {
      "inputs": [
        {
          "internalType": "uint256",
          "name": "_gameId",
          "type": "uint256"
        }
      ],
      "name": "viewGameResult",
      "outputs": [
        {
          "internalType": "string",
          "name": "teamA",
          "type": "string"
        },
        {
          "internalType": "string",
          "name": "teamB",
          "type": "string"
        },
        {
          "internalType": "uint8",
          "name": "scoreA",
          "type": "uint8"
        },
        {
          "internalType": "uint8",
          "name": "scoreB",
          "type": "uint8"
        },
        {
          "internalType": "string",
          "name": "winner",
          "type": "string"
        }
      ],
      "stateMutability": "view",
      "type": "function"
    }
  ],
  "bytecode": "0x608060405234801561001057600080fd5b50611b83806100206000396000f3fe608060405234801561001057600080fd5b50600436106100625760003560e01c8063044c96e4146100675780630c173c0214610083578063117a5b90146100b55780632e0be39a146100eb5780637157fcd014610109578063ff967cf61461013d575b600080fd5b610081600480360381019061007c9190611146565b610159565b005b61009d60048036038101906100989190611105565b61055a565b6040516100ac93929190611533565b60405180910390f35b6100cf60048036038101906100ca9190611206565b61064f565b6040516100e29796959493929190611769565b60405180910390f35b6100f3610843565b60405161010091906116d9565b60405180910390f35b610123600480360381019061011e9190611206565b610849565b604051610134959493929190611571565b60405180910390f35b610157600480360381019061015291906111b2565b610aa4565b005b81813373ffffffffffffffffffffffffffffffffffffffff1660018360405161018291906114ec565b908152602001604051809103902060010160009054906101000a900473ffffffffffffffffffffffffffffffffffffffff1673ffffffffffffffffffffffffffffffffffffffff16148061024257503373ffffffffffffffffffffffffffffffffffffffff166001826040516101f891906114ec565b908152602001604051809103902060010160009054906101000a900473ffffffffffffffffffffffffffffffffffffffff1673ffffffffffffffffffffffffffffffffffffffff16145b610281576040517f08c379a0000000000000000000000000000000000000000000000000000000008152600401610278906116b9565b60405180910390fd5b60038460405161029191906114ec565b908152602001604051809103902060009054906101000a900460ff166102ec576040517f08c379a00000000000000000000000000000000000000000000000000000000081526004016102e390611639565b60405180910390fd5b6003836040516102fc91906114ec565b908152602001604051809103902060009054906101000a900460ff16610357576040517f08c379a000000000000000000000000000000000000000000000000000000000815260040161034e906115d9565b60405180910390fd5b600084511161039b576040517f08c379a000000000000000000000000000000000000000000000000000000000815260040161039290611679565b60405180910390fd5b60008351116103df576040517f08c379a00000000000000000000000000000000000000000000000000000000081526004016103d690611619565b60405180910390fd5b6000808154809291906103f1906119d8565b919050555060008054905060006040518060e00160405280838152602001428152602001878152602001868152602001600060ff168152602001600060ff16815260200160405180602001604052806000815250815250905080600260008481526020019081526020016000206000820151816000015560208201518160010155604082015181600201908051906020019061048e929190610fd0565b5060608201518160030190805190602001906104ab929190610fd0565b5060808201518160040160006101000a81548160ff021916908360ff16021790555060a08201518160040160016101000a81548160ff021916908360ff16021790555060c082015181600501908051906020019061050a929190610fd0565b509050507f91e94df3bff4970c9c66ccdd031e928a33b94622e5ccc8d1aec619d37eca17e982878760405161054193929190611724565b60405180910390a161055282610ca2565b505050505050565b600181805160208101820180518482526020830160208501208183528095505050505050600091509050806000018054610593906119a6565b80601f01602080910402602001604051908101604052809291908181526020018280546105bf906119a6565b801561060c5780601f106105e15761010080835404028352916020019161060c565b820191906000526020600020905b8154815290600101906020018083116105ef57829003601f168201915b5050505050908060010160009054906101000a900473ffffffffffffffffffffffffffffffffffffffff16908060010160149054906101000a900460ff16905083565b600260205280600052604060002060009150905080600001549080600101549080600201805461067e906119a6565b80601f01602080910402602001604051908101604052809291908181526020018280546106aa906119a6565b80156106f75780601f106106cc576101008083540402835291602001916106f7565b820191906000526020600020905b8154815290600101906020018083116106da57829003601f168201915b50505050509080600301805461070c906119a6565b80601f0160208091040260200160405190810160405280929190818152602001828054610738906119a6565b80156107855780601f1061075a57610100808354040283529160200191610785565b820191906000526020600020905b81548152906001019060200180831161076857829003601f168201915b5050505050908060040160009054906101000a900460ff16908060040160019054906101000a900460ff16908060050180546107c0906119a6565b80601f01602080910402602001604051908101604052809291908181526020018280546107ec906119a6565b80156108395780601f1061080e57610100808354040283529160200191610839565b820191906000526020600020905b81548152906001019060200180831161081c57829003601f168201915b5050505050905087565b60005481565b60608060008060606000600260008881526020019081526020016000206040518060e00160405290816000820154815260200160018201548152602001600282018054610895906119a6565b80601f01602080910402602001604051908101604052809291908181526020018280546108c1906119a6565b801561090e5780601f106108e35761010080835404028352916020019161090e565b820191906000526020600020905b8154815290600101906020018083116108f157829003601f168201915b50505050508152602001600382018054610927906119a6565b80601f0160208091040260200160405190810160405280929190818152602001828054610953906119a6565b80156109a05780601f10610975576101008083540402835291602001916109a0565b820191906000526020600020905b81548152906001019060200180831161098357829003601f168201915b505050505081526020016004820160009054906101000a900460ff1660ff1660ff1681526020016004820160019054906101000a900460ff1660ff1660ff1681526020016005820180546109f3906119a6565b80601f0160208091040260200160405190810160405280929190818152602001828054610a1f906119a6565b8015610a6c5780601f10610a4157610100808354040283529160200191610a6c565b820191906000526020600020905b815481529060010190602001808311610a4f57829003601f168201915b50505050508152505090508060400151816060015182608001518360a001518460c00151955095509550955095505091939590929450565b6000825111610ae8576040517f08c379a0000000000000000000000000000000000000000000000000000000008152600401610adf906115f9565b60405180910390fd5b600382604051610af891906114ec565b908152602001604051809103902060009054906101000a900460ff1615610b54576040517f08c379a0000000000000000000000000000000000000000000000000000000008152600401610b4b90611659565b60405180910390fd5b60405180606001604052808381526020013373ffffffffffffffffffffffffffffffffffffffff1681526020018260ff16815250600183604051610b9891906114ec565b90815260200160405180910390206000820151816000019080519060200190610bc2929190610fd0565b5060208201518160010160006101000a81548173ffffffffffffffffffffffffffffffffffffffff021916908373ffffffffffffffffffffffffffffffffffffffff16021790555060408201518160010160146101000a81548160ff021916908360ff1602179055509050506001600383604051610c4091906114ec565b908152602001604051809103902060006101000a81548160ff0219169083151502179055507fdee35e59d52579d265f7717d034e930ac94f6d679e1980b4b6d194883ec840b98233604051610c96929190611503565b60405180910390a15050565b80600260008381526020019081526020016000206000015414610cfa576040517f08c379a0000000000000000000000000000000000000000000000000000000008152600401610cf190611699565b60405180910390fd5b6000600542610d099190611a21565b9050600060054342610d1b91906118c1565b610d259190611a21565b9050816002600085815260200190815260200160002060040160006101000a81548160ff021916908360ff160217905550806002600085815260200190815260200160002060040160016101000a81548160ff021916908360ff16021790555060608160ff168360ff161115610e3b57600260008581526020019081526020016000206002018054610db6906119a6565b80601f0160208091040260200160405190810160405280929190818152602001828054610de2906119a6565b8015610e2f5780601f10610e0457610100808354040283529160200191610e2f565b820191906000526020600020905b815481529060010190602001808311610e1257829003601f168201915b50505050509050610f29565b8260ff168260ff161115610eef57600260008581526020019081526020016000206003018054610e6a906119a6565b80601f0160208091040260200160405190810160405280929190818152602001828054610e96906119a6565b8015610ee35780601f10610eb857610100808354040283529160200191610ee3565b820191906000526020600020905b815481529060010190602001808311610ec657829003601f168201915b50505050509050610f28565b6040518060400160405280600481526020017f447261770000000000000000000000000000000000000000000000000000000081525090505b5b80600260008681526020019081526020016000206005019080519060200190610f53929190610fd0565b507f3ee533c584b12cc25e622c9087c6ff260c72d7b085f857a9e265a226265247c084848484604051610f8994939291906117ed565b60405180910390a17f915c9b317ec82fd7b1d2a0457db5dc9c1b3ccee6adf6819ac8d56335883372cf8482604051610fc29291906116f4565b60405180910390a150505050565b828054610fdc906119a6565b90600052602060002090601f016020900481019282610ffe5760008555611045565b82601f1061101757805160ff1916838001178555611045565b82800160010185558215611045579182015b82811115611044578251825591602001919060010190611029565b5b5090506110529190611056565b5090565b5b8082111561106f576000816000905550600101611057565b5090565b60006110866110818461186a565b611839565b90508281526020810184848401111561109e57600080fd5b6110a9848285611964565b509392505050565b600082601f8301126110c257600080fd5b81356110d2848260208601611073565b91505092915050565b6000813590506110ea81611b1f565b92915050565b6000813590506110ff81611b36565b92915050565b60006020828403121561111757600080fd5b600082013567ffffffffffffffff81111561113157600080fd5b61113d848285016110b1565b91505092915050565b6000806040838503121561115957600080fd5b600083013567ffffffffffffffff81111561117357600080fd5b61117f858286016110b1565b925050602083013567ffffffffffffffff81111561119c57600080fd5b6111a8858286016110b1565b9150509250929050565b600080604083850312156111c557600080fd5b600083013567ffffffffffffffff8111156111df57600080fd5b6111eb858286016110b1565b92505060206111fc858286016110f0565b9150509250929050565b60006020828403121561121857600080fd5b6000611226848285016110db565b91505092915050565b6112388161191b565b82525050565b60006112498261189a565b61125381856118a5565b9350611263818560208601611973565b61126c81611b0e565b840191505092915050565b60006112828261189a565b61128c81856118b6565b935061129c818560208601611973565b80840191505092915050565b60006112b56018836118a5565b91507f5465616d2042206973206e6f74207265676973746572656400000000000000006000830152602082019050919050565b60006112f56011836118a5565b91507f496e76616c6964207465616d206e616d650000000000000000000000000000006000830152602082019050919050565b60006113356013836118a5565b91507f496e76616c6964207465616d2042206e616d65000000000000000000000000006000830152602082019050919050565b60006113756018836118a5565b91507f5465616d2041206973206e6f74207265676973746572656400000000000000006000830152602082019050919050565b60006113b56017836118a5565b91507f5465616d20616c726561647920726567697374657265640000000000000000006000830152602082019050919050565b60006113f56013836118a5565b91507f496e76616c6964207465616d2041206e616d65000000000000000000000000006000830152602082019050919050565b60006114356013836118a5565b91507f47616d6520646f6573206e6f74206578697374000000000000000000000000006000830152602082019050919050565b60006114756027836118a5565b91507f4f6e6c79207465616d206f776e65722063616e20706572666f726d207468697360008301527f20616374696f6e000000000000000000000000000000000000000000000000006020830152604082019050919050565b6114d78161194d565b82525050565b6114e681611957565b82525050565b60006114f88284611277565b915081905092915050565b6000604082019050818103600083015261151d818561123e565b905061152c602083018461122f565b9392505050565b6000606082019050818103600083015261154d818661123e565b905061155c602083018561122f565b61156960408301846114dd565b949350505050565b600060a082019050818103600083015261158b818861123e565b9050818103602083015261159f818761123e565b90506115ae60408301866114dd565b6115bb60608301856114dd565b81810360808301526115cd818461123e565b90509695505050505050565b600060208201905081810360008301526115f2816112a8565b9050919050565b60006020820190508181036000830152611612816112e8565b9050919050565b6000602082019050818103600083015261163281611328565b9050919050565b6000602082019050818103600083015261165281611368565b9050919050565b60006020820190508181036000830152611672816113a8565b9050919050565b60006020820190508181036000830152611692816113e8565b9050919050565b600060208201905081810360008301526116b281611428565b9050919050565b600060208201905081810360008301526116d281611468565b9050919050565b60006020820190506116ee60008301846114ce565b92915050565b600060408201905061170960008301856114ce565b818103602083015261171b818461123e565b90509392505050565b600060608201905061173960008301866114ce565b818103602083015261174b818561123e565b9050818103604083015261175f818461123e565b9050949350505050565b600060e08201905061177e600083018a6114ce565b61178b60208301896114ce565b818103604083015261179d818861123e565b905081810360608301526117b1818761123e565b90506117c060808301866114dd565b6117cd60a08301856114dd565b81810360c08301526117df818461123e565b905098975050505050505050565b600060808201905061180260008301876114ce565b61180f60208301866114dd565b61181c60408301856114dd565b818103606083015261182e818461123e565b905095945050505050565b6000604051905081810181811067ffffffffffffffff821117156118605761185f611adf565b5b8060405250919050565b600067ffffffffffffffff82111561188557611884611adf565b5b601f19601f8301169050602081019050919050565b600081519050919050565b600082825260208201905092915050565b600081905092915050565b60006118cc8261194d565b91506118d78361194d565b9250817fffffffffffffffffffffffffffffffffffffffffffffffffffffffffffffffff04831182151516156119105761190f611a52565b5b828202905092915050565b60006119268261192d565b9050919050565b600073ffffffffffffffffffffffffffffffffffffffff82169050919050565b6000819050919050565b600060ff82169050919050565b82818337600083830152505050565b60005b83811015611991578082015181840152602081019050611976565b838111156119a0576000848401525b50505050565b600060028204905060018216806119be57607f821691505b602082108114156119d2576119d1611ab0565b5b50919050565b60006119e38261194d565b91507fffffffffffffffffffffffffffffffffffffffffffffffffffffffffffffffff821415611a1657611a15611a52565b5b600182019050919050565b6000611a2c8261194d565b9150611a378361194d565b925082611a4757611a46611a81565b5b828206905092915050565b7f4e487b7100000000000000000000000000000000000000000000000000000000600052601160045260246000fd5b7f4e487b7100000000000000000000000000000000000000000000000000000000600052601260045260246000fd5b7f4e487b7100000000000000000000000000000000000000000000000000000000600052602260045260246000fd5b7f4e487b7100000000000000000000000000000000000000000000000000000000600052604160045260246000fd5b6000601f19601f8301169050919050565b611b288161194d565b8114611b3357600080fd5b50565b611b3f81611957565b8114611b4a57600080fd5b5056fea26469706673582212202889d2503fbf33856735345acd6c6245046ca83abde46823792fc8bab06df04564736f6c63430008000033",
  "linkReferences": {},
  "deployedLinkReferences": {}
}